S0140000547261666669634C696768742E7372656359
S11300000C942A000C9447000C9447000C9447006D
S11300100C9447000C9447000C9447000C94470040
S11300200C9447000C948B000C9447000C9427020A
S11300300C9447000C9447000C9447000C94470020
S11300400C9447000C9447000C9447000C94470010
S11300500C94470011241FBECFE5D4E0DEBFCDBF12
S113006010E0A0E6B0E0E8E7F5E002C005900D92EC
S1130070AA36B107D9F720E0AAE6B0E001C01D9284
S1130080A437B207E1F70E94F1000C94BA020C9471
S11300900000AC019C01ADECBCEC0E949702FC0199
S11300A0F695E795F695E795F695E7959F01220F66
S11300B0331FCF01880F991F880F991F880F991F2D
S11300C0820F931F481B590B80E1E89F400D1124B8
S11300D04BBB0895AC019C01ADECBCEC0E949702B3
S11300E0FC01F695E795F695E795F695E7959F015A
S11300F0220F331FCF01880F991F880F991F880F74
S1130100991F820F931F481B590B80E1E89F400DF4
S1130110112448BB08951F920F920FB60F92112419
S11301208F939F93AF93BF9382E882BF80916A00BD
S113013090916B00A0916C00B0916D000196A11D8F
S1130140B11D80936A0090936B00A0936C00B093F0
S11301506D00BF91AF919F918F910F900FBE0F9043
S11301601F9018955D9BFECF8CB90895CF93DF93B4
S1130170AC019C01ADECBCEC0E949702969587956E
S113018096958795969587959C01220F331F880F26
S1130190991F880F991F880F991F820F931F9A0127
S11301A0281B390BC9019927EC01E096CA016AE0C2
S11301B070E00E94830280E3860F0E94B2008FECFD
S11301C097E00197F1F700C000008C2F0E94B20065
S11301D08FEC97E00197F1F700C00000DF91CF9119
S11301E008958FEF8ABB8BBB87BB88BB93EC94BB12
S11301F085BB90E391BB82BB83E083BF82E882BF6F
S113020081E089BF83E389B910BC1BB888E98AB946
S113021086E880BD7894C12CD12C05C0C12CD12C8A
S113022002C0C12CD12C80916E0090E040917100ED
S113023050E02091720030E0C0917300D0E06091F2
S11302406F00613321F0623309F4B4C0F0C0480F89
S1130250591F240F351FC20FD31FC816D90674F4B3
S11302608C199D095C0121E0A21AB1084C195D09A1
S11302707A0181E0E81AF10811E033C0C816D90602
S113028064F0C416D5064CF44C195D095A0191E08A
S1130290A91AB108750112E024C0C416D50694F059
S11302A0C216D3067CF48E010C191D09580181E095
S11302B0A81AB1082C193D09790191E0E91AF1084D
S11302C013E00FC0C216D30664F0CC16DD064CF45E
S11302D08E010C191D09580121E0A21AB1087501FB
S11302E014E0113011F490E401C090E0133011F4E3
S11302F080E801C080E0982B8FEF810F823010F4EA
S113030032E001C030E081E02DEF210F223008F00F
S113031080E0932B892B809585BB123011F490E1FA
S113032001C090E0143011F480E201C080E0892B18
S1130330809582BBC5010E944900C7010E946A00E2
S113034080916A0090916B00A0916C00B0916D0057
S1130350892B8A2B8B2B81F480E3810F0E94B200BE
S11303608FEC97E00197F1F700C00000C5010E94EF
S1130370B600C7010E94B60080916A0090916B009C
S1130380A0916C00B0916D00883E9340A105B10529
S113039008F449CF8FEFC81AD80A10926A00109255
S11303A06B0010926C0010926D00CC16DD060CF000
S11303B035CF39CF8FEF8BBB88BB85BB82B38F3CE6
S11303C011F415E001C016E080916A0090916B0071
S11303D0A0916C00B0916D00892B8A2B8B2B51F46A
S11303E080E3810F0E94B2008FEC97E00197F1F750
S11303F000C0000080916A0090916B00A0916C0095
S1130400B0916D00883E9340A105B10508F409CF71
S113041092B380E3892782BB10926A0010926B002A
S113042010926C0010926D00C12CD12CFCCE109255
S11304306A0010926B0010926C0010926D008FEFA6
S11304408BBB88BB85BB82BBC12CD12CECCE1F924D
S11304500F920FB60F9211242F938F939F93EF93C4
S1130460FF9380917000E82FF0E09CB1E05AFF4FB9
S113047090838F5F809370008930D8F1E0E6F0E0DC
S1130480808180936F00818190E0C0979281880F72
S1130490282F220F220F820F890F805380936E0022
S11304A0838190E0C0979481880F282F220F220F18
S11304B0820F890F805380937100858190E0C097EB
S11304C09681880F282F220F220F820F890F8053C5
S11304D080937200878190E0C0979085880F282FC1
S11304E0220F220F820F890F805380937300109282
S11304F07000FF91EF919F918F912F910F900FBEFC
S11305000F901F90189597FB072E16F4009407D0B0
S113051077FD09D00E94A60207FC05D03EF4909511
S113052081959F4F0895709561957F4F0895A29F7F
S1130530B001B39FC001A39F700D811D1124911DB3
S1130540B29F700D811D1124911D0895AA1BBB1B20
S113055051E107C0AA1FBB1FA617B70710F0A61BBF
S1130560B70B881F991F5A95A9F780959095BC01E0
S10B0570CD010895F894FFCFBA
S10D057830303030303030303000C5
S9030000FC
